{
  "contractName": "SLToken",
  "abi": [
    {
      "constant": true,
      "inputs": [],
      "name": "totalSupply",
      "outputs": [
        {
          "name": "",
          "type": "uint256"
        }
      ],
      "payable": false,
      "stateMutability": "view",
      "type": "function",
      "signature": "0x18160ddd"
    },
    {
      "constant": true,
      "inputs": [
        {
          "name": "",
          "type": "address"
        }
      ],
      "name": "balanceOf",
      "outputs": [
        {
          "name": "",
          "type": "uint256"
        }
      ],
      "payable": false,
      "stateMutability": "view",
      "type": "function",
      "signature": "0x70a08231"
    },
    {
      "inputs": [
        {
          "name": "_initialSupply",
          "type": "uint256"
        }
      ],
      "payable": false,
      "stateMutability": "nonpayable",
      "type": "constructor",
      "signature": "constructor"
    }
  ],
  "bytecode": "0x608060405234801561001057600080fd5b506040516020806101bd8339810180604052602081101561003057600080fd5b810190808051906020019092919050505080600160003373ffffffffffffffffffffffffffffffffffffffff1673ffffffffffffffffffffffffffffffffffffffff1681526020019081526020016000208190555080600081905550506101218061009c6000396000f3fe6080604052600436106049576000357c0100000000000000000000000000000000000000000000000000000000900463ffffffff16806318160ddd14604e57806370a08231146076575b600080fd5b348015605957600080fd5b50606060d7565b6040518082815260200191505060405180910390f35b348015608157600080fd5b5060c160048036036020811015609657600080fd5b81019080803573ffffffffffffffffffffffffffffffffffffffff16906020019092919050505060dd565b6040518082815260200191505060405180910390f35b60005481565b6001602052806000526040600020600091509050548156fea165627a7a72305820ee8d6705bb8bc48ce88b41cb40e9ac277b9b3910684e9e3f2e06f8f528dff55e0029",
  "source": "// SPDX-License-Identifier: MIT\npragma solidity >=0.5.0 <=0.7.0;\n\ncontract SLToken{\n    uint256 public totalSupply;\n    mapping(address => uint256) public balanceOf;\n\n    constructor(uint256 _initialSupply) public {\n        balanceOf[msg.sender]=_initialSupply;\n        totalSupply = _initialSupply;\n    }\n}",
  "sourcePath": "/home/salma/My_Projects/token_sale/contracts/SLToken.sol",
  "compiler": {
    "name": "solc",
    "version": "0.5.0+commit.1d4f565a.Emscripten.clang"
  },
  "schemaVersion": "3.0.2",
  "updatedAt": "2020-08-08T11:46:51.108Z",
  "devdoc": {
    "methods": {}
  },
  "userdoc": {
    "methods": {}
  }
}