{
  "contractName": "SLToken",
  "abi": [
    {
      "constant": true,
      "inputs": [],
      "name": "totalSupply",
      "outputs": [
        {
          "name": "",
          "type": "uint256"
        }
      ],
      "payable": false,
      "stateMutability": "view",
      "type": "function",
      "signature": "0x18160ddd"
    },
    {
      "inputs": [],
      "payable": false,
      "stateMutability": "nonpayable",
      "type": "constructor",
      "signature": "constructor"
    }
  ],
  "bytecode": "0x608060405234801561001057600080fd5b50620f4240600081905550609e806100296000396000f3fe608060405260043610603f576000357c0100000000000000000000000000000000000000000000000000000000900463ffffffff16806318160ddd146044575b600080fd5b348015604f57600080fd5b506056606c565b6040518082815260200191505060405180910390f35b6000548156fea165627a7a723058208d5318ca5de8b373401f4637bcf898eeddef1000e7f96dd1eed08dadbca1dbc40029",
  "source": "// SPDX-License-Identifier: MIT\npragma solidity >=0.5.0 <=0.7.0;\n\ncontract SLToken{\n    uint256 public totalSupply;\n    constructor() public {\n        totalSupply = 1000000;\n    }\n}",
  "sourcePath": "/home/salma/My_Projects/token_sale/contracts/SLToken.sol",
  "compiler": {
    "name": "solc",
    "version": "0.5.0+commit.1d4f565a.Emscripten.clang"
  },
  "schemaVersion": "3.0.2",
  "updatedAt": "2020-08-06T20:50:09.282Z",
  "devdoc": {
    "methods": {}
  },
  "userdoc": {
    "methods": {}
  }
}